{
  "contractName": "Attendance",
  "abi": [
    {
      "anonymous": false,
      "inputs": [
        {
          "indexed": false,
          "internalType": "string",
          "name": "studentId",
          "type": "string"
        },
        {
          "indexed": false,
          "internalType": "string",
          "name": "courseCode",
          "type": "string"
        },
        {
          "indexed": false,
          "internalType": "string",
          "name": "unitCode",
          "type": "string"
        },
        {
          "indexed": false,
          "internalType": "string",
          "name": "date",
          "type": "string"
        }
      ],
      "name": "AttendanceMarked",
      "type": "event"
    },
    {
      "inputs": [
        {
          "internalType": "uint256",
          "name": "",
          "type": "uint256"
        }
      ],
      "name": "records",
      "outputs": [
        {
          "internalType": "string",
          "name": "studentId",
          "type": "string"
        },
        {
          "internalType": "string",
          "name": "courseCode",
          "type": "string"
        },
        {
          "internalType": "string",
          "name": "unitCode",
          "type": "string"
        },
        {
          "internalType": "string",
          "name": "date",
          "type": "string"
        }
      ],
      "stateMutability": "view",
      "type": "function",
      "constant": true
    },
    {
      "inputs": [
        {
          "internalType": "string",
          "name": "_studentId",
          "type": "string"
        },
        {
          "internalType": "string",
          "name": "_courseCode",
          "type": "string"
        },
        {
          "internalType": "string",
          "name": "_unitCode",
          "type": "string"
        },
        {
          "internalType": "string",
          "name": "_date",
          "type": "string"
        }
      ],
      "name": "markAttendance",
      "outputs": [],
      "stateMutability": "nonpayable",
      "type": "function"
    },
    {
      "inputs": [],
      "name": "getAttendanceCount",
      "outputs": [
        {
          "internalType": "uint256",
          "name": "",
          "type": "uint256"
        }
      ],
      "stateMutability": "view",
      "type": "function",
      "constant": true
    }
  ],
  "bytecode": "0x608060405234801561001057600080fd5b506108ab806100206000396000f3fe608060405234801561001057600080fd5b50600436106100415760003560e01c80633237e5e8146100465780633446106714610062578063a26f801114610095575b600080fd5b610060600480360381019061005b9190610544565b6100b3565b005b61007c60048036038101906100779190610607565b6101b8565b60405161008c9493929190610678565b60405180910390f35b61009d610418565b6040516100aa91906106d9565b60405180910390f35b60006040518060800160405280868152602001858152602001848152602001838152509080600181540180825580915050600190039060005260206000209060040201600090919091909150600082015181600001908051906020019061011b929190610424565b506020820151816001019080519060200190610138929190610424565b506040820151816002019080519060200190610155929190610424565b506060820151816003019080519060200190610172929190610424565b5050507f52d5867ca3a87bf95173f01f07c4cc1415b8fbd28e14ac1bb22b2b4ee55aec4f848484846040516101aa9493929190610678565b60405180910390a150505050565b600081815481106101c857600080fd5b90600052602060002090600402016000915090508060000180546101eb906107bd565b80601f0160208091040260200160405190810160405280929190818152602001828054610217906107bd565b80156102645780601f1061023957610100808354040283529160200191610264565b820191906000526020600020905b81548152906001019060200180831161024757829003601f168201915b505050505090806001018054610279906107bd565b80601f01602080910402602001604051908101604052809291908181526020018280546102a5906107bd565b80156102f25780601f106102c7576101008083540402835291602001916102f2565b820191906000526020600020905b8154815290600101906020018083116102d557829003601f168201915b505050505090806002018054610307906107bd565b80601f0160208091040260200160405190810160405280929190818152602001828054610333906107bd565b80156103805780601f1061035557610100808354040283529160200191610380565b820191906000526020600020905b81548152906001019060200180831161036357829003601f168201915b505050505090806003018054610395906107bd565b80601f01602080910402602001604051908101604052809291908181526020018280546103c1906107bd565b801561040e5780601f106103e35761010080835404028352916020019161040e565b820191906000526020600020905b8154815290600101906020018083116103f157829003601f168201915b5050505050905084565b60008080549050905090565b828054610430906107bd565b90600052602060002090601f0160209004810192826104525760008555610499565b82601f1061046b57805160ff1916838001178555610499565b82800160010185558215610499579182015b8281111561049857825182559160200191906001019061047d565b5b5090506104a691906104aa565b5090565b5b808211156104c35760008160009055506001016104ab565b5090565b60006104da6104d584610725565b6106f4565b9050828152602081018484840111156104f257600080fd5b6104fd84828561077b565b509392505050565b600082601f83011261051657600080fd5b81356105268482602086016104c7565b91505092915050565b60008135905061053e8161085e565b92915050565b6000806000806080858703121561055a57600080fd5b600085013567ffffffffffffffff81111561057457600080fd5b61058087828801610505565b945050602085013567ffffffffffffffff81111561059d57600080fd5b6105a987828801610505565b935050604085013567ffffffffffffffff8111156105c657600080fd5b6105d287828801610505565b925050606085013567ffffffffffffffff8111156105ef57600080fd5b6105fb87828801610505565b91505092959194509250565b60006020828403121561061957600080fd5b60006106278482850161052f565b91505092915050565b600061063b82610755565b6106458185610760565b935061065581856020860161078a565b61065e8161084d565b840191505092915050565b61067281610771565b82525050565b600060808201905081810360008301526106928187610630565b905081810360208301526106a68186610630565b905081810360408301526106ba8185610630565b905081810360608301526106ce8184610630565b905095945050505050565b60006020820190506106ee6000830184610669565b92915050565b6000604051905081810181811067ffffffffffffffff8211171561071b5761071a61081e565b5b8060405250919050565b600067ffffffffffffffff8211156107405761073f61081e565b5b601f19601f8301169050602081019050919050565b600081519050919050565b600082825260208201905092915050565b6000819050919050565b82818337600083830152505050565b60005b838110156107a857808201518184015260208101905061078d565b838111156107b7576000848401525b50505050565b600060028204905060018216806107d557607f821691505b602082108114156107e9576107e86107ef565b5b50919050565b7f4e487b7100000000000000000000000000000000000000000000000000000000600052602260045260246000fd5b7f4e487b7100000000000000000000000000000000000000000000000000000000600052604160045260246000fd5b6000601f19601f8301169050919050565b61086781610771565b811461087257600080fd5b5056fea26469706673582212205a8be160bef91964b66d1cfbb21589fdc554001a1d03cfc71ba962b5aec4ac7e64736f6c63430008000033",
  "immutableReferences": {},
  "source": "// SPDX-License-Identifier: MIT\r\npragma solidity ^0.8.0;\r\n\r\ncontract Attendance {\r\n    struct AttendanceRecord {\r\n        string studentId;\r\n        string courseCode;\r\n        string unitCode;\r\n        string date;\r\n    }\r\n\r\n    AttendanceRecord[] public records;\r\n    event AttendanceMarked(string studentId, string courseCode, string unitCode, string date);\r\n\r\n    function markAttendance(\r\n        string memory _studentId,\r\n        string memory _courseCode,\r\n        string memory _unitCode,\r\n        string memory _date\r\n    ) public {\r\n        records.push(AttendanceRecord(_studentId, _courseCode, _unitCode, _date));\r\n        emit AttendanceMarked(_studentId, _courseCode, _unitCode, _date);\r\n    }\r\n\r\n    function getAttendanceCount() public view returns (uint) {\r\n        return records.length;\r\n    }\r\n}\r\n",
  "sourcePath": "C:\\xampp\\htdocs\\Face-Recognition-Attendance-System\\contracts\\Attendance.sol",
  "compiler": {
    "name": "solc",
    "version": "0.8.0+commit.c7dfd78e.Emscripten.clang"
  },
  "schemaVersion": "3.4.16",
  "updatedAt": "2024-12-07T16:03:19.343Z",
  "networkType": "ethereum",
  "devdoc": {
    "kind": "dev",
    "methods": {},
    "version": 1
  },
  "userdoc": {
    "kind": "user",
    "methods": {},
    "version": 1
  }
}